{
  "_format": "hh-sol-artifact-1",
  "contractName": "XXXXXXX",
  "sourceName": "contracts/TESTErc20/TestERC20.sol",
  "abi": [
    {
      "inputs": [
        {
          "internalType": "string",
          "name": "name",
          "type": "string"
        },
        {
          "internalType": "string",
          "name": "symbol",
          "type": "string"
        },
        {
          "internalType": "uint8",
          "name": "decimals",
          "type": "uint8"
        },
        {
          "internalType": "uint256",
          "name": "cap",
          "type": "uint256"
        },
        {
          "internalType": "uint256",
          "name": "initialBalance",
          "type": "uint256"
        }
      ],
      "stateMutability": "nonpayable",
      "type": "constructor"
    },
    {
      "anonymous": false,
      "inputs": [
        {
          "indexed": true,
          "internalType": "address",
          "name": "owner",
          "type": "address"
        },
        {
          "indexed": true,
          "internalType": "address",
          "name": "spender",
          "type": "address"
        },
        {
          "indexed": false,
          "internalType": "uint256",
          "name": "value",
          "type": "uint256"
        }
      ],
      "name": "Approval",
      "type": "event"
    },
    {
      "anonymous": false,
      "inputs": [],
      "name": "MintFinished",
      "type": "event"
    },
    {
      "anonymous": false,
      "inputs": [
        {
          "indexed": true,
          "internalType": "address",
          "name": "previousOwner",
          "type": "address"
        },
        {
          "indexed": true,
          "internalType": "address",
          "name": "newOwner",
          "type": "address"
        }
      ],
      "name": "OwnershipTransferred",
      "type": "event"
    },
    {
      "anonymous": false,
      "inputs": [
        {
          "indexed": true,
          "internalType": "address",
          "name": "from",
          "type": "address"
        },
        {
          "indexed": true,
          "internalType": "address",
          "name": "to",
          "type": "address"
        },
        {
          "indexed": false,
          "internalType": "uint256",
          "name": "value",
          "type": "uint256"
        }
      ],
      "name": "Transfer",
      "type": "event"
    },
    {
      "inputs": [
        {
          "internalType": "address",
          "name": "owner",
          "type": "address"
        },
        {
          "internalType": "address",
          "name": "spender",
          "type": "address"
        }
      ],
      "name": "allowance",
      "outputs": [
        {
          "internalType": "uint256",
          "name": "",
          "type": "uint256"
        }
      ],
      "stateMutability": "view",
      "type": "function"
    },
    {
      "inputs": [
        {
          "internalType": "address",
          "name": "spender",
          "type": "address"
        },
        {
          "internalType": "uint256",
          "name": "amount",
          "type": "uint256"
        }
      ],
      "name": "approve",
      "outputs": [
        {
          "internalType": "bool",
          "name": "",
          "type": "bool"
        }
      ],
      "stateMutability": "nonpayable",
      "type": "function"
    },
    {
      "inputs": [
        {
          "internalType": "address",
          "name": "account",
          "type": "address"
        }
      ],
      "name": "balanceOf",
      "outputs": [
        {
          "internalType": "uint256",
          "name": "",
          "type": "uint256"
        }
      ],
      "stateMutability": "view",
      "type": "function"
    },
    {
      "inputs": [],
      "name": "cap",
      "outputs": [
        {
          "internalType": "uint256",
          "name": "",
          "type": "uint256"
        }
      ],
      "stateMutability": "view",
      "type": "function"
    },
    {
      "inputs": [],
      "name": "decimals",
      "outputs": [
        {
          "internalType": "uint8",
          "name": "",
          "type": "uint8"
        }
      ],
      "stateMutability": "view",
      "type": "function"
    },
    {
      "inputs": [
        {
          "internalType": "address",
          "name": "spender",
          "type": "address"
        },
        {
          "internalType": "uint256",
          "name": "subtractedValue",
          "type": "uint256"
        }
      ],
      "name": "decreaseAllowance",
      "outputs": [
        {
          "internalType": "bool",
          "name": "",
          "type": "bool"
        }
      ],
      "stateMutability": "nonpayable",
      "type": "function"
    },
    {
      "inputs": [],
      "name": "finishMinting",
      "outputs": [],
      "stateMutability": "nonpayable",
      "type": "function"
    },
    {
      "inputs": [
        {
          "internalType": "address",
          "name": "spender",
          "type": "address"
        },
        {
          "internalType": "uint256",
          "name": "addedValue",
          "type": "uint256"
        }
      ],
      "name": "increaseAllowance",
      "outputs": [
        {
          "internalType": "bool",
          "name": "",
          "type": "bool"
        }
      ],
      "stateMutability": "nonpayable",
      "type": "function"
    },
    {
      "inputs": [
        {
          "internalType": "address",
          "name": "account",
          "type": "address"
        },
        {
          "internalType": "uint256",
          "name": "amount",
          "type": "uint256"
        }
      ],
      "name": "mint",
      "outputs": [],
      "stateMutability": "nonpayable",
      "type": "function"
    },
    {
      "inputs": [],
      "name": "mintingFinished",
      "outputs": [
        {
          "internalType": "bool",
          "name": "",
          "type": "bool"
        }
      ],
      "stateMutability": "view",
      "type": "function"
    },
    {
      "inputs": [],
      "name": "name",
      "outputs": [
        {
          "internalType": "string",
          "name": "",
          "type": "string"
        }
      ],
      "stateMutability": "view",
      "type": "function"
    },
    {
      "inputs": [],
      "name": "owner",
      "outputs": [
        {
          "internalType": "address",
          "name": "",
          "type": "address"
        }
      ],
      "stateMutability": "view",
      "type": "function"
    },
    {
      "inputs": [],
      "name": "renounceOwnership",
      "outputs": [],
      "stateMutability": "nonpayable",
      "type": "function"
    },
    {
      "inputs": [],
      "name": "symbol",
      "outputs": [
        {
          "internalType": "string",
          "name": "",
          "type": "string"
        }
      ],
      "stateMutability": "view",
      "type": "function"
    },
    {
      "inputs": [],
      "name": "totalSupply",
      "outputs": [
        {
          "internalType": "uint256",
          "name": "",
          "type": "uint256"
        }
      ],
      "stateMutability": "view",
      "type": "function"
    },
    {
      "inputs": [
        {
          "internalType": "address",
          "name": "recipient",
          "type": "address"
        },
        {
          "internalType": "uint256",
          "name": "amount",
          "type": "uint256"
        }
      ],
      "name": "transfer",
      "outputs": [
        {
          "internalType": "bool",
          "name": "",
          "type": "bool"
        }
      ],
      "stateMutability": "nonpayable",
      "type": "function"
    },
    {
      "inputs": [
        {
          "internalType": "address",
          "name": "sender",
          "type": "address"
        },
        {
          "internalType": "address",
          "name": "recipient",
          "type": "address"
        },
        {
          "internalType": "uint256",
          "name": "amount",
          "type": "uint256"
        }
      ],
      "name": "transferFrom",
      "outputs": [
        {
          "internalType": "bool",
          "name": "",
          "type": "bool"
        }
      ],
      "stateMutability": "nonpayable",
      "type": "function"
    },
    {
      "inputs": [
        {
          "internalType": "address",
          "name": "newOwner",
          "type": "address"
        }
      ],
      "name": "transferOwnership",
      "outputs": [],
      "stateMutability": "nonpayable",
      "type": "function"
    }
  ],
  "bytecode": "0x60806040526007805460ff191690553480156200001b57600080fd5b5060405162001560380380620015608339810160408190526200003e9162000563565b818585816003908051906020019062000059929190620003f0565b5080516200006f906004906020840190620003f0565b50506005805460ff191660121790555080620000d25760405162461bcd60e51b815260206004820152601560248201527f45524332304361707065643a206361702069732030000000000000000000000060448201526064015b60405180910390fd5b60065560078054610100600160a81b0319163361010081029190911790915560405181906000907f8be0079c531659141344cd1fd0a4f28419497f9722a3daafe3b4186f6b6457e0908290a3506005805460ff191660ff85161790556200013a338262000145565b50505050506200065d565b6007546001600160a01b03610100909104163314620001a75760405162461bcd60e51b815260206004820181905260248201527f4f776e61626c653a2063616c6c6572206973206e6f7420746865206f776e65726044820152606401620000c9565b620001be8282620001c260201b6200069a1760201c565b5050565b6001600160a01b0382166200021a5760405162461bcd60e51b815260206004820152601f60248201527f45524332303a206d696e7420746f20746865207a65726f2061646472657373006044820152606401620000c9565b6200022860008383620002cc565b6200024481600254620002e960201b620007841790919060201c565b6002556001600160a01b038216600090815260208181526040909120546200027791839062000784620002e9821b17901c565b6001600160a01b038316600081815260208181526040808320949094559251848152919290917fddf252ad1be2c89b69c2b068fc378daa952ba7f163c4a11628f55a4df523b3ef910160405180910390a35050565b620002e48383836200035360201b620007ea1760201c565b505050565b600080620002f88385620005f9565b9050838110156200034c5760405162461bcd60e51b815260206004820152601b60248201527f536166654d6174683a206164646974696f6e206f766572666c6f7700000000006044820152606401620000c9565b9392505050565b6200036b838383620002e460201b6200085c1760201c565b6001600160a01b038316620002e457600654620003a0826200038c60025490565b620002e960201b620007841790919060201c565b1115620002e45760405162461bcd60e51b815260206004820152601960248201527f45524332304361707065643a20636170206578636565646564000000000000006044820152606401620000c9565b828054620003fe9062000620565b90600052602060002090601f0160209004810192826200042257600085556200046d565b82601f106200043d57805160ff19168380011785556200046d565b828001600101855582156200046d579182015b828111156200046d57825182559160200191906001019062000450565b506200047b9291506200047f565b5090565b5b808211156200047b576000815560010162000480565b634e487b7160e01b600052604160045260246000fd5b600082601f830112620004be57600080fd5b81516001600160401b0380821115620004db57620004db62000496565b604051601f8301601f19908116603f0116810190828211818310171562000506576200050662000496565b816040528381526020925086838588010111156200052357600080fd5b600091505b8382101562000547578582018301518183018401529082019062000528565b83821115620005595760008385830101525b9695505050505050565b600080600080600060a086880312156200057c57600080fd5b85516001600160401b03808211156200059457600080fd5b620005a289838a01620004ac565b96506020880151915080821115620005b957600080fd5b50620005c888828901620004ac565b945050604086015160ff81168114620005e057600080fd5b6060870151608090970151959894975095949392505050565b600082198211156200061b57634e487b7160e01b600052601160045260246000fd5b500190565b600181811c908216806200063557607f821691505b602082108114156200065757634e487b7160e01b600052602260045260246000fd5b50919050565b610ef3806200066d6000396000f3fe608060405234801561001057600080fd5b50600436106101165760003560e01c806370a08231116100a257806395d89b411161007157806395d89b411461022b578063a457c2d714610233578063a9059cbb14610246578063dd62ed3e14610259578063f2fde38b1461029257600080fd5b806370a08231146101c9578063715018a6146101f25780637d64bcb4146101fa5780638da5cb5b1461020257600080fd5b806323b872dd116100e957806323b872dd14610171578063313ce56714610184578063355274ea1461019957806339509351146101a157806340c10f19146101b457600080fd5b806305d2035b1461011b57806306fdde0314610137578063095ea7b31461014c57806318160ddd1461015f575b600080fd5b60075460ff165b60405190151581526020015b60405180910390f35b61013f6102a5565b60405161012e9190610c63565b61012261015a366004610cd4565b610337565b6002545b60405190815260200161012e565b61012261017f366004610cfe565b61034d565b60055460405160ff909116815260200161012e565b600654610163565b6101226101af366004610cd4565b6103b6565b6101c76101c2366004610cd4565b6103ec565b005b6101636101d7366004610d3a565b6001600160a01b031660009081526020819052604090205490565b6101c7610426565b6101c76104d6565b60075461010090046001600160a01b03166040516001600160a01b03909116815260200161012e565b61013f610503565b610122610241366004610cd4565b610512565b610122610254366004610cd4565b610561565b610163610267366004610d55565b6001600160a01b03918216600090815260016020908152604080832093909416825291909152205490565b6101c76102a0366004610d3a565b61056e565b6060600380546102b490610d88565b80601f01602080910402602001604051908101604052809291908181526020018280546102e090610d88565b801561032d5780601f106103025761010080835404028352916020019161032d565b820191906000526020600020905b81548152906001019060200180831161031057829003601f168201915b5050505050905090565b6000610344338484610861565b50600192915050565b600061035a848484610986565b6103ac84336103a785604051806060016040528060288152602001610e71602891396001600160a01b038a1660009081526001602090815260408083203384529091529020549190610b14565b610861565b5060019392505050565b3360008181526001602090815260408083206001600160a01b038716845290915281205490916103449185906103a79086610784565b60075460ff16156104185760405162461bcd60e51b815260040161040f90610dc3565b60405180910390fd5b6104228282610b4e565b5050565b6007546001600160a01b036101009091041633146104865760405162461bcd60e51b815260206004820181905260248201527f4f776e61626c653a2063616c6c6572206973206e6f7420746865206f776e6572604482015260640161040f565b60075460405160009161010090046001600160a01b0316907f8be0079c531659141344cd1fd0a4f28419497f9722a3daafe3b4186f6b6457e0908390a360078054610100600160a81b0319169055565b60075460ff16156104f95760405162461bcd60e51b815260040161040f90610dc3565b610501610bb8565b565b6060600480546102b490610d88565b600061034433846103a785604051806060016040528060258152602001610e99602591393360009081526001602090815260408083206001600160a01b038d1684529091529020549190610b14565b6000610344338484610986565b6007546001600160a01b036101009091041633146105ce5760405162461bcd60e51b815260206004820181905260248201527f4f776e61626c653a2063616c6c6572206973206e6f7420746865206f776e6572604482015260640161040f565b6001600160a01b0381166106335760405162461bcd60e51b815260206004820152602660248201527f4f776e61626c653a206e6577206f776e657220697320746865207a65726f206160448201526564647265737360d01b606482015260840161040f565b6007546040516001600160a01b0380841692610100900416907f8be0079c531659141344cd1fd0a4f28419497f9722a3daafe3b4186f6b6457e090600090a3600780546001600160a01b0390921661010002610100600160a81b0319909216919091179055565b6001600160a01b0382166106f05760405162461bcd60e51b815260206004820152601f60248201527f45524332303a206d696e7420746f20746865207a65726f206164647265737300604482015260640161040f565b6106fc60008383610c20565b6002546107099082610784565b6002556001600160a01b03821660009081526020819052604090205461072f9082610784565b6001600160a01b038316600081815260208181526040808320949094559251848152919290917fddf252ad1be2c89b69c2b068fc378daa952ba7f163c4a11628f55a4df523b3ef910160405180910390a35050565b6000806107918385610e1b565b9050838110156107e35760405162461bcd60e51b815260206004820152601b60248201527f536166654d6174683a206164646974696f6e206f766572666c6f770000000000604482015260640161040f565b9392505050565b6001600160a01b03831661085c5760065461080e8261080860025490565b90610784565b111561085c5760405162461bcd60e51b815260206004820152601960248201527f45524332304361707065643a2063617020657863656564656400000000000000604482015260640161040f565b505050565b6001600160a01b0383166108c35760405162461bcd60e51b8152602060048201526024808201527f45524332303a20617070726f76652066726f6d20746865207a65726f206164646044820152637265737360e01b606482015260840161040f565b6001600160a01b0382166109245760405162461bcd60e51b815260206004820152602260248201527f45524332303a20617070726f766520746f20746865207a65726f206164647265604482015261737360f01b606482015260840161040f565b6001600160a01b0383811660008181526001602090815260408083209487168084529482529182902085905590518481527f8c5be1e5ebec7d5bd14f71427d1e84f3dd0314c0f7b2291e5b200ac8c7c3b92591015b60405180910390a3505050565b6001600160a01b0383166109ea5760405162461bcd60e51b815260206004820152602560248201527f45524332303a207472616e736665722066726f6d20746865207a65726f206164604482015264647265737360d81b606482015260840161040f565b6001600160a01b038216610a4c5760405162461bcd60e51b815260206004820152602360248201527f45524332303a207472616e7366657220746f20746865207a65726f206164647260448201526265737360e81b606482015260840161040f565b610a57838383610c20565b610a9481604051806060016040528060268152602001610e4b602691396001600160a01b0386166000908152602081905260409020549190610b14565b6001600160a01b038085166000908152602081905260408082209390935590841681522054610ac39082610784565b6001600160a01b038381166000818152602081815260409182902094909455518481529092918616917fddf252ad1be2c89b69c2b068fc378daa952ba7f163c4a11628f55a4df523b3ef9101610979565b60008184841115610b385760405162461bcd60e51b815260040161040f9190610c63565b506000610b458486610e33565b95945050505050565b6007546001600160a01b03610100909104163314610bae5760405162461bcd60e51b815260206004820181905260248201527f4f776e61626c653a2063616c6c6572206973206e6f7420746865206f776e6572604482015260640161040f565b610422828261069a565b6007546001600160a01b03610100909104163314610c185760405162461bcd60e51b815260206004820181905260248201527f4f776e61626c653a2063616c6c6572206973206e6f7420746865206f776e6572604482015260640161040f565b610501610c2b565b61085c8383836107ea565b6007805460ff191660011790556040517fae5184fba832cb2b1f702aca6117b8d265eaf03ad33eb133f19dde0f5920fa0890600090a1565b600060208083528351808285015260005b81811015610c9057858101830151858201604001528201610c74565b81811115610ca2576000604083870101525b50601f01601f1916929092016040019392505050565b80356001600160a01b0381168114610ccf57600080fd5b919050565b60008060408385031215610ce757600080fd5b610cf083610cb8565b946020939093013593505050565b600080600060608486031215610d1357600080fd5b610d1c84610cb8565b9250610d2a60208501610cb8565b9150604084013590509250925092565b600060208284031215610d4c57600080fd5b6107e382610cb8565b60008060408385031215610d6857600080fd5b610d7183610cb8565b9150610d7f60208401610cb8565b90509250929050565b600181811c90821680610d9c57607f821691505b60208210811415610dbd57634e487b7160e01b600052602260045260246000fd5b50919050565b60208082526022908201527f45524332304d696e7461626c653a206d696e74696e672069732066696e697368604082015261195960f21b606082015260800190565b634e487b7160e01b600052601160045260246000fd5b60008219821115610e2e57610e2e610e05565b500190565b600082821015610e4557610e45610e05565b50039056fe45524332303a207472616e7366657220616d6f756e7420657863656564732062616c616e636545524332303a207472616e7366657220616d6f756e74206578636565647320616c6c6f77616e636545524332303a2064656372656173656420616c6c6f77616e63652062656c6f77207a65726fa26469706673582212200874da4260680949a57d05e09190731b1a96c13c12f289dff5731011e1ab9a7664736f6c634300080a0033",
  "linkReferences": {},
  "deployedLinkReferences": {}
}