{
  "_format": "hh-sol-artifact-1",
  "contractName": "MultisendFacet",
  "sourceName": "contracts/ADASTRAMultisend/facets/MultisendFacet.sol",
  "abi": [
    {
      "anonymous": false,
      "inputs": [
        {
          "indexed": false,
          "internalType": "address",
          "name": "token",
          "type": "address"
        },
        {
          "indexed": false,
          "internalType": "address",
          "name": "from",
          "type": "address"
        },
        {
          "indexed": false,
          "internalType": "uint256",
          "name": "total",
          "type": "uint256"
        }
      ],
      "name": "LogTokenBulkSent",
      "type": "event"
    },
    {
      "anonymous": false,
      "inputs": [
        {
          "indexed": false,
          "internalType": "address",
          "name": "from",
          "type": "address"
        },
        {
          "indexed": false,
          "internalType": "uint256",
          "name": "total",
          "type": "uint256"
        }
      ],
      "name": "LogTokenBulkSentNative",
      "type": "event"
    },
    {
      "inputs": [
        {
          "internalType": "address[]",
          "name": "_to",
          "type": "address[]"
        },
        {
          "internalType": "uint256[]",
          "name": "_value",
          "type": "uint256[]"
        }
      ],
      "name": "nativeSendDifferentValue",
      "outputs": [],
      "stateMutability": "payable",
      "type": "function"
    },
    {
      "inputs": [
        {
          "internalType": "address[]",
          "name": "_to",
          "type": "address[]"
        },
        {
          "internalType": "uint256",
          "name": "_value",
          "type": "uint256"
        }
      ],
      "name": "nativeSendSameValue",
      "outputs": [],
      "stateMutability": "payable",
      "type": "function"
    },
    {
      "inputs": [
        {
          "internalType": "address",
          "name": "_tokenAddress",
          "type": "address"
        },
        {
          "internalType": "address[]",
          "name": "_to",
          "type": "address[]"
        },
        {
          "internalType": "uint256[]",
          "name": "_value",
          "type": "uint256[]"
        }
      ],
      "name": "sendDifferentValue",
      "outputs": [],
      "stateMutability": "nonpayable",
      "type": "function"
    },
    {
      "inputs": [
        {
          "internalType": "address",
          "name": "_tokenAddress",
          "type": "address"
        },
        {
          "internalType": "address[]",
          "name": "_to",
          "type": "address[]"
        },
        {
          "internalType": "uint256",
          "name": "_value",
          "type": "uint256"
        }
      ],
      "name": "sendSameValue",
      "outputs": [],
      "stateMutability": "nonpayable",
      "type": "function"
    }
  ],
  "bytecode": "0x608060405234801561001057600080fd5b50610a76806100206000396000f3fe60806040526004361061003f5760003560e01c806305fbfee11461004457806316167600146100595780633522df0d14610079578063848da8301461008c575b600080fd5b61005761005236600461077e565b6100ac565b005b34801561006557600080fd5b506100576100743660046107c3565b610212565b610057610087366004610875565b610366565b34801561009857600080fd5b506100576100a73660046108d9565b6104b7565b81516000906100bb9083610635565b90503433828210156101045760405162461bcd60e51b815260206004820152600d60248201526c696e7375662062616c616e636560981b60448201526064015b60405180910390fd5b60ff855111156101265760405162461bcd60e51b81526004016100fb9061094d565b60005b85518160ff1610156101c857858160ff168151811061014a5761014a610979565b60200260200101516001600160a01b03166108fc869081150290604051600060405180830381858888f193505050506101b65760405162461bcd60e51b815260206004820152600e60248201526d19985a5b1959081d1bc81cd95b9960921b60448201526064016100fb565b806101c0816109a5565b915050610129565b50604080516001600160a01b0383168152602081018490527fd6d07b77603ff9c1e71400a42f9205829b18623e5fc55d69f355e14b5803141f910160405180910390a15050505050565b8151339060ff10156102365760405162461bcd60e51b81526004016100fb9061094d565b82516000906102459084610635565b90508460005b85518160ff16101561031257816001600160a01b03166323b872dd85888460ff168151811061027c5761027c610979565b60209081029190910101516040516001600160e01b031960e085901b1681526001600160a01b03928316600482015291166024820152604481018890526064016020604051808303816000875af11580156102db573d6000803e3d6000fd5b505050506040513d601f19601f820116820180604052508101906102ff91906109c5565b508061030a816109a5565b91505061024b565b50604080516001600160a01b038089168252851660208201529081018390527f50a5a05e4fcf8317a50616363e195b0a9c76db2e758ebbc24078f086e7f62c979060600160405180910390a1505050505050565b60008160008151811061037b5761037b610979565b602090810291909101015190503433828210156103ca5760405162461bcd60e51b815260206004820152600d60248201526c696e7375662062616c616e636560981b60448201526064016100fb565b835185511461040b5760405162461bcd60e51b815260206004820152600d60248201526c1a5b9d985b1a59081a5b9c1d5d609a1b60448201526064016100fb565b60ff8551111561042d5760405162461bcd60e51b81526004016100fb9061094d565b60005b85518160ff1610156101c857858160ff168151811061045157610451610979565b60200260200101516001600160a01b03166108fc868360ff168151811061047a5761047a610979565b60200260200101519081150290604051600060405180830381858888f193505050506104a557600080fd5b806104af816109a5565b915050610430565b805182513391146104fa5760405162461bcd60e51b815260206004820152600d60248201526c1a5b9d985b1a59081a5b9c1d5d609a1b60448201526064016100fb565b60ff8351111561051c5760405162461bcd60e51b81526004016100fb9061094d565b600084815b85518160ff16101561031257816001600160a01b03166323b872dd33888460ff168151811061055257610552610979565b6020026020010151888560ff168151811061056f5761056f610979565b60209081029190910101516040516001600160e01b031960e086901b1681526001600160a01b03938416600482015292909116602483015260448201526064016020604051808303816000875af11580156105ce573d6000803e3d6000fd5b505050506040513d601f19601f820116820180604052508101906105f291906109c5565b50610622858260ff168151811061060b5761060b610979565b60200260200101518461066990919063ffffffff16565b508061062d816109a5565b915050610521565b60008061064283856109e7565b90508315806106595750826106578583610a06565b145b61066257600080fd5b9392505050565b6000806106768385610a28565b90508381101561066257600080fd5b634e487b7160e01b600052604160045260246000fd5b604051601f8201601f1916810167ffffffffffffffff811182821017156106c4576106c4610685565b604052919050565b600067ffffffffffffffff8211156106e6576106e6610685565b5060051b60200190565b80356001600160a01b038116811461070757600080fd5b919050565b600082601f83011261071d57600080fd5b8135602061073261072d836106cc565b61069b565b82815260059290921b8401810191818101908684111561075157600080fd5b8286015b8481101561077357610766816106f0565b8352918301918301610755565b509695505050505050565b6000806040838503121561079157600080fd5b823567ffffffffffffffff8111156107a857600080fd5b6107b48582860161070c565b95602094909401359450505050565b6000806000606084860312156107d857600080fd5b6107e1846106f0565b9250602084013567ffffffffffffffff8111156107fd57600080fd5b6108098682870161070c565b925050604084013590509250925092565b600082601f83011261082b57600080fd5b8135602061083b61072d836106cc565b82815260059290921b8401810191818101908684111561085a57600080fd5b8286015b84811015610773578035835291830191830161085e565b6000806040838503121561088857600080fd5b823567ffffffffffffffff808211156108a057600080fd5b6108ac8683870161070c565b935060208501359150808211156108c257600080fd5b506108cf8582860161081a565b9150509250929050565b6000806000606084860312156108ee57600080fd5b6108f7846106f0565b9250602084013567ffffffffffffffff8082111561091457600080fd5b6109208783880161070c565b9350604086013591508082111561093657600080fd5b506109438682870161081a565b9150509250925092565b602080825260129082015271195e18d95959081b585e08185b1b1bddd95960721b604082015260600190565b634e487b7160e01b600052603260045260246000fd5b634e487b7160e01b600052601160045260246000fd5b600060ff821660ff8114156109bc576109bc61098f565b60010192915050565b6000602082840312156109d757600080fd5b8151801515811461066257600080fd5b6000816000190483118215151615610a0157610a0161098f565b500290565b600082610a2357634e487b7160e01b600052601260045260246000fd5b500490565b60008219821115610a3b57610a3b61098f565b50019056fea2646970667358221220526d936a1915a81bab038ddbb3d12ff49322b78d5fc53f48589a52669f9d2d1964736f6c634300080a0033",
  "linkReferences": {},
  "deployedLinkReferences": {}
}